{
  "_format": "hh-sol-artifact-1",
  "contractName": "BalancerTokenAdmin",
  "sourceName": "contracts/liquidity-mining/BalancerTokenAdmin.sol",
  "abi": [
    {
      "inputs": [
        {
          "internalType": "contract IVault",
          "name": "vault",
          "type": "address"
        },
        {
          "internalType": "contract IBalancerToken",
          "name": "balancerToken",
          "type": "address"
        }
      ],
      "stateMutability": "nonpayable",
      "type": "constructor"
    },
    {
      "anonymous": false,
      "inputs": [
        {
          "indexed": false,
          "internalType": "uint256",
          "name": "rate",
          "type": "uint256"
        },
        {
          "indexed": false,
          "internalType": "uint256",
          "name": "supply",
          "type": "uint256"
        }
      ],
      "name": "MiningParametersUpdated",
      "type": "event"
    },
    {
      "inputs": [],
      "name": "INITIAL_RATE",
      "outputs": [
        {
          "internalType": "uint256",
          "name": "",
          "type": "uint256"
        }
      ],
      "stateMutability": "view",
      "type": "function"
    },
    {
      "inputs": [],
      "name": "RATE_DENOMINATOR",
      "outputs": [
        {
          "internalType": "uint256",
          "name": "",
          "type": "uint256"
        }
      ],
      "stateMutability": "view",
      "type": "function"
    },
    {
      "inputs": [],
      "name": "RATE_REDUCTION_COEFFICIENT",
      "outputs": [
        {
          "internalType": "uint256",
          "name": "",
          "type": "uint256"
        }
      ],
      "stateMutability": "view",
      "type": "function"
    },
    {
      "inputs": [],
      "name": "RATE_REDUCTION_TIME",
      "outputs": [
        {
          "internalType": "uint256",
          "name": "",
          "type": "uint256"
        }
      ],
      "stateMutability": "view",
      "type": "function"
    },
    {
      "inputs": [],
      "name": "activate",
      "outputs": [],
      "stateMutability": "nonpayable",
      "type": "function"
    },
    {
      "inputs": [],
      "name": "available_supply",
      "outputs": [
        {
          "internalType": "uint256",
          "name": "",
          "type": "uint256"
        }
      ],
      "stateMutability": "view",
      "type": "function"
    },
    {
      "inputs": [],
      "name": "futureEpochTimeWrite",
      "outputs": [
        {
          "internalType": "uint256",
          "name": "",
          "type": "uint256"
        }
      ],
      "stateMutability": "nonpayable",
      "type": "function"
    },
    {
      "inputs": [],
      "name": "future_epoch_time_write",
      "outputs": [
        {
          "internalType": "uint256",
          "name": "",
          "type": "uint256"
        }
      ],
      "stateMutability": "nonpayable",
      "type": "function"
    },
    {
      "inputs": [
        {
          "internalType": "bytes4",
          "name": "selector",
          "type": "bytes4"
        }
      ],
      "name": "getActionId",
      "outputs": [
        {
          "internalType": "bytes32",
          "name": "",
          "type": "bytes32"
        }
      ],
      "stateMutability": "view",
      "type": "function"
    },
    {
      "inputs": [],
      "name": "getAuthorizer",
      "outputs": [
        {
          "internalType": "contract IAuthorizer",
          "name": "",
          "type": "address"
        }
      ],
      "stateMutability": "view",
      "type": "function"
    },
    {
      "inputs": [],
      "name": "getAvailableSupply",
      "outputs": [
        {
          "internalType": "uint256",
          "name": "",
          "type": "uint256"
        }
      ],
      "stateMutability": "view",
      "type": "function"
    },
    {
      "inputs": [],
      "name": "getBalancerToken",
      "outputs": [
        {
          "internalType": "contract IBalancerToken",
          "name": "",
          "type": "address"
        }
      ],
      "stateMutability": "view",
      "type": "function"
    },
    {
      "inputs": [],
      "name": "getFutureEpochTime",
      "outputs": [
        {
          "internalType": "uint256",
          "name": "",
          "type": "uint256"
        }
      ],
      "stateMutability": "view",
      "type": "function"
    },
    {
      "inputs": [],
      "name": "getInflationRate",
      "outputs": [
        {
          "internalType": "uint256",
          "name": "",
          "type": "uint256"
        }
      ],
      "stateMutability": "view",
      "type": "function"
    },
    {
      "inputs": [],
      "name": "getMiningEpoch",
      "outputs": [
        {
          "internalType": "uint256",
          "name": "",
          "type": "uint256"
        }
      ],
      "stateMutability": "view",
      "type": "function"
    },
    {
      "inputs": [],
      "name": "getStartEpochSupply",
      "outputs": [
        {
          "internalType": "uint256",
          "name": "",
          "type": "uint256"
        }
      ],
      "stateMutability": "view",
      "type": "function"
    },
    {
      "inputs": [],
      "name": "getStartEpochTime",
      "outputs": [
        {
          "internalType": "uint256",
          "name": "",
          "type": "uint256"
        }
      ],
      "stateMutability": "view",
      "type": "function"
    },
    {
      "inputs": [],
      "name": "getVault",
      "outputs": [
        {
          "internalType": "contract IVault",
          "name": "",
          "type": "address"
        }
      ],
      "stateMutability": "view",
      "type": "function"
    },
    {
      "inputs": [
        {
          "internalType": "address",
          "name": "to",
          "type": "address"
        },
        {
          "internalType": "uint256",
          "name": "amount",
          "type": "uint256"
        }
      ],
      "name": "mint",
      "outputs": [],
      "stateMutability": "nonpayable",
      "type": "function"
    },
    {
      "inputs": [
        {
          "internalType": "uint256",
          "name": "start",
          "type": "uint256"
        },
        {
          "internalType": "uint256",
          "name": "end",
          "type": "uint256"
        }
      ],
      "name": "mintableInTimeframe",
      "outputs": [
        {
          "internalType": "uint256",
          "name": "",
          "type": "uint256"
        }
      ],
      "stateMutability": "view",
      "type": "function"
    },
    {
      "inputs": [
        {
          "internalType": "uint256",
          "name": "start",
          "type": "uint256"
        },
        {
          "internalType": "uint256",
          "name": "end",
          "type": "uint256"
        }
      ],
      "name": "mintable_in_timeframe",
      "outputs": [
        {
          "internalType": "uint256",
          "name": "",
          "type": "uint256"
        }
      ],
      "stateMutability": "view",
      "type": "function"
    },
    {
      "inputs": [],
      "name": "rate",
      "outputs": [
        {
          "internalType": "uint256",
          "name": "",
          "type": "uint256"
        }
      ],
      "stateMutability": "view",
      "type": "function"
    },
    {
      "inputs": [],
      "name": "snapshot",
      "outputs": [],
      "stateMutability": "nonpayable",
      "type": "function"
    },
    {
      "inputs": [],
      "name": "startEpochTimeWrite",
      "outputs": [
        {
          "internalType": "uint256",
          "name": "",
          "type": "uint256"
        }
      ],
      "stateMutability": "nonpayable",
      "type": "function"
    },
    {
      "inputs": [],
      "name": "start_epoch_time_write",
      "outputs": [
        {
          "internalType": "uint256",
          "name": "",
          "type": "uint256"
        }
      ],
      "stateMutability": "nonpayable",
      "type": "function"
    },
    {
      "inputs": [],
      "name": "updateMiningParameters",
      "outputs": [],
      "stateMutability": "nonpayable",
      "type": "function"
    },
    {
      "inputs": [],
      "name": "update_mining_parameters",
      "outputs": [],
      "stateMutability": "nonpayable",
      "type": "function"
    }
  ],
  "bytecode": "0x60e060405260001960025534801561001657600080fd5b50604051611cf4380380611cf48339818101604052604081101561003957600080fd5b508051602090910151306080526001600160601b0319606092831b811660a0526001600055911b1660c05260805160a05160601c60c05160601c611be16101136000398061036452806104075280610499528061053552806105e75280610686528061074952806107df528061084252806108e152806109a45280610a3a5280610a9d5280610b3d5280610be75280610caf5280610d105280610e175280610eeb5280610f9a5280611077528061115b52806112bd528061138552806114c152806115bb5250806114955250806114405250611be16000f3fe608060405234801561001057600080fd5b50600436106101a95760003560e01c8063851c1bb3116100f9578063b87b561611610097578063c3b03fa811610071578063c3b03fa8146102b9578063cb626ae2146102dc578063d43b40fa146102dc578063d725a9ca146102b9576101a9565b8063b87b5616146102a9578063c0039699146102b1578063c167d1cd146101e2576101a9565b8063a228bced116100d3578063a228bced14610299578063aaabadc5146102a1578063adc4cf4314610299578063b26b238e146101ea576101a9565b8063851c1bb3146102465780638d928af81461026d5780639711715a14610291576101a9565b80632c4e722e116101665780634dbac733116101405780634dbac7331461022e57806355f74176146102365780637efad8e01461023e578063819df2c4146101f2576101a9565b80632c4e722e146101f257806340c10f19146101fa5780634d2fa41314610226576101a9565b8063087905c9146101ae5780630dfbdce4146101c85780630f15f4c0146101d057806321609bbf146101da57806324f92a25146101e2578063277dbafb146101ea575b600080fd5b6101b66102e4565b60408051918252519081900360200190f35b6101b66102eb565b6101d8610304565b005b6101b6611254565b6101b6611260565b6101b661126a565b6101b6611282565b6101d86004803603604081101561021057600080fd5b506001600160a01b038135169060200135611288565b6101b6611416565b6101b661141c565b6101b6611428565b6101b661142e565b6101b66004803603602081101561025c57600080fd5b50356001600160e01b03191661143a565b610275611493565b604080516001600160a01b039092168252519081900360200190f35b6101d86114b7565b6101b6611534565b61027561153e565b6101b66115b1565b6102756115b9565b6101b6600480360360408110156102cf57600080fd5b50803590602001356115dd565b6101d86115f0565b6001545b90565b6002546000906102ff906301e1338061165d565b905090565b61030c61166f565b610314611688565b60001960025414610360576040805162461bcd60e51b8152602060048201526011602482015270105b1c9958591e481858dd1a5d985d1959607a1b604482015290519081900360640190fd5b60007f00000000000000000000000000000000000000000000000000000000000000006001600160a01b031663d53913936040518163ffffffff1660e01b815260040160206040518083038186803b1580156103bb57600080fd5b505afa1580156103cf573d6000803e3d6000fd5b505050506040513d60208110156103e557600080fd5b505160408051637028e2cd60e01b815290519192506000916001600160a01b037f00000000000000000000000000000000000000000000000000000000000000001691637028e2cd916004808301926020929190829003018186803b15801561044d57600080fd5b505afa158015610461573d6000803e3d6000fd5b505050506040513d602081101561047757600080fd5b50516040805163a217fddf60e01b815290519192506000916001600160a01b037f0000000000000000000000000000000000000000000000000000000000000000169163a217fddf916004808301926020929190829003018186803b1580156104df57600080fd5b505afa1580156104f3573d6000803e3d6000fd5b505050506040513d602081101561050957600080fd5b505160408051632474521560e21b81526004810183905230602482015290519192506001600160a01b037f000000000000000000000000000000000000000000000000000000000000000016916391d1485491604480820192602092909190829003018186803b15801561057c57600080fd5b505afa158015610590573d6000803e3d6000fd5b505050506040513d60208110156105a657600080fd5b50516105e35760405162461bcd60e51b8152600401808060200182810382526022815260200180611b136022913960400191505060405180910390fd5b60007f00000000000000000000000000000000000000000000000000000000000000006001600160a01b031663ca15c873856040518263ffffffff1660e01b81526004018082815260200191505060206040518083038186803b15801561064957600080fd5b505afa15801561065d573d6000803e3d6000fd5b505050506040513d602081101561067357600080fd5b5051905060005b818110156107b75760007f00000000000000000000000000000000000000000000000000000000000000006001600160a01b0316639010d07c8760006040518363ffffffff1660e01b8152600401808381526020018281526020019250505060206040518083038186803b1580156106f157600080fd5b505afa158015610705573d6000803e3d6000fd5b505050506040513d602081101561071b57600080fd5b50516040805163d547741f60e01b8152600481018990526001600160a01b03808416602483015291519293507f00000000000000000000000000000000000000000000000000000000000000009091169163d547741f9160448082019260009290919082900301818387803b15801561079357600080fd5b505af11580156107a7573d6000803e3d6000fd5b505050505080600101905061067a565b5060408051632f2ff15d60e01b81526004810186905230602482015290516001600160a01b037f00000000000000000000000000000000000000000000000000000000000000001691632f2ff15d91604480830192600092919082900301818387803b15801561082657600080fd5b505af115801561083a573d6000803e3d6000fd5b5050505060007f00000000000000000000000000000000000000000000000000000000000000006001600160a01b031663ca15c873856040518263ffffffff1660e01b81526004018082815260200191505060206040518083038186803b1580156108a457600080fd5b505afa1580156108b8573d6000803e3d6000fd5b505050506040513d60208110156108ce57600080fd5b5051905060005b81811015610a125760007f00000000000000000000000000000000000000000000000000000000000000006001600160a01b0316639010d07c8760006040518363ffffffff1660e01b8152600401808381526020018281526020019250505060206040518083038186803b15801561094c57600080fd5b505afa158015610960573d6000803e3d6000fd5b505050506040513d602081101561097657600080fd5b50516040805163d547741f60e01b8152600481018990526001600160a01b03808416602483015291519293507f00000000000000000000000000000000000000000000000000000000000000009091169163d547741f9160448082019260009290919082900301818387803b1580156109ee57600080fd5b505af1158015610a02573d6000803e3d6000fd5b50505050508060010190506108d5565b5060408051632f2ff15d60e01b81526004810186905230602482015290516001600160a01b037f00000000000000000000000000000000000000000000000000000000000000001691632f2ff15d91604480830192600092919082900301818387803b158015610a8157600080fd5b505af1158015610a95573d6000803e3d6000fd5b5050505060007f00000000000000000000000000000000000000000000000000000000000000006001600160a01b031663ca15c873856040518263ffffffff1660e01b81526004018082815260200191505060206040518083038186803b158015610aff57600080fd5b505afa158015610b13573d6000803e3d6000fd5b505050506040513d6020811015610b2957600080fd5b505190506000805b82811015610c875760007f00000000000000000000000000000000000000000000000000000000000000006001600160a01b0316639010d07c88856040518363ffffffff1660e01b8152600401808381526020018281526020019250505060206040518083038186803b158015610ba757600080fd5b505afa158015610bbb573d6000803e3d6000fd5b505050506040513d6020811015610bd157600080fd5b505190506001600160a01b0381163014610c79577f00000000000000000000000000000000000000000000000000000000000000006001600160a01b031663d547741f88836040518363ffffffff1660e01b815260040180838152602001826001600160a01b0316815260200192505050600060405180830381600087803b158015610c5c57600080fd5b505af1158015610c70573d6000803e3d6000fd5b50505050610c7e565b600192505b50600101610b31565b506040805163d547741f60e01b81526004810187905230602482015290516001600160a01b037f0000000000000000000000000000000000000000000000000000000000000000169163d547741f91604480830192600092919082900301818387803b158015610cf657600080fd5b505af1158015610d0a573d6000803e3d6000fd5b505050507f00000000000000000000000000000000000000000000000000000000000000006001600160a01b031663ca15c873866040518263ffffffff1660e01b81526004018082815260200191505060206040518083038186803b158015610d7257600080fd5b505afa158015610d86573d6000803e3d6000fd5b505050506040513d6020811015610d9c57600080fd5b505115610df0576040805162461bcd60e51b815260206004820181905260248201527f416464726573732065786973747320776974682061646d696e20726967687473604482015290519081900360640190fd5b60408051632474521560e21b81526004810189905230602482015290516001600160a01b037f000000000000000000000000000000000000000000000000000000000000000016916391d14854916044808301926020929190829003018186803b158015610e5d57600080fd5b505afa158015610e71573d6000803e3d6000fd5b505050506040513d6020811015610e8757600080fd5b5051610ec45760405162461bcd60e51b8152600401808060200182810382526022815260200180611b8a6022913960400191505060405180910390fd5b60408051632474521560e21b81526004810188905230602482015290516001600160a01b037f000000000000000000000000000000000000000000000000000000000000000016916391d14854916044808301926020929190829003018186803b158015610f3157600080fd5b505afa158015610f45573d6000803e3d6000fd5b505050506040513d6020811015610f5b57600080fd5b5051610f985760405162461bcd60e51b8152600401808060200182810382526027815260200180611b356027913960400191505060405180910390fd5b7f00000000000000000000000000000000000000000000000000000000000000006001600160a01b031663ca15c873886040518263ffffffff1660e01b81526004018082815260200191505060206040518083038186803b158015610ffc57600080fd5b505afa158015611010573d6000803e3d6000fd5b505050506040513d602081101561102657600080fd5b5051600114611075576040805162461bcd60e51b8152602060048201526016602482015275135d5b1d1a5c1b19481b5a5b9d195c9cc8195e1a5cdd60521b604482015290519081900360640190fd5b7f00000000000000000000000000000000000000000000000000000000000000006001600160a01b031663ca15c873876040518263ffffffff1660e01b81526004018082815260200191505060206040518083038186803b1580156110d957600080fd5b505afa1580156110ed573d6000803e3d6000fd5b505050506040513d602081101561110357600080fd5b5051600114611159576040805162461bcd60e51b815260206004820152601b60248201527f4d756c7469706c6520736e617073686f74746572732065786973740000000000604482015290519081900360640190fd5b7f00000000000000000000000000000000000000000000000000000000000000006001600160a01b03166318160ddd6040518163ffffffff1660e01b815260040160206040518083038186803b1580156111b257600080fd5b505afa1580156111c6573d6000803e3d6000fd5b505050506040513d60208110156111dc57600080fd5b50516003554260025562093a80691eb4773b6d1318a00000046004557fa96ad9a0b81b29565fbe231714a2f2c152b759e603c91bf87144a3f61944f0a562093a80691eb4773b6d1318a000006003546040805193909204835260208301528051918290030190a1505050505050506112526116b9565b565b671080e992061ab30081565b60006102ff6116c0565b60006102ff6301e1338061127c6116fa565b9061165d565b60045490565b611290611688565b6002546112a1906301e1338061165d565b42106112af576112af611726565b6112b76116c0565b611346827f00000000000000000000000000000000000000000000000000000000000000006001600160a01b03166318160ddd6040518163ffffffff1660e01b815260040160206040518083038186803b15801561131457600080fd5b505afa158015611328573d6000803e3d6000fd5b505050506040513d602081101561133e57600080fd5b50519061165d565b11156113835760405162461bcd60e51b815260040180806020018281038252602e815260200180611b5c602e913960400191505060405180910390fd5b7f00000000000000000000000000000000000000000000000000000000000000006001600160a01b03166340c10f1983836040518363ffffffff1660e01b815260040180836001600160a01b0316815260200182815260200192505050600060405180830381600087803b1580156113fa57600080fd5b505af115801561140e573d6000803e3d6000fd5b505050505050565b60025490565b670353c226d6c6f58081565b60035490565b670de0b6b3a764000081565b604080517f00000000000000000000000000000000000000000000000000000000000000006020808301919091526001600160e01b03198416828401528251602481840301815260449092019092528051910120919050565b7f000000000000000000000000000000000000000000000000000000000000000090565b6114bf611688565b7f00000000000000000000000000000000000000000000000000000000000000006001600160a01b0316639711715a6040518163ffffffff1660e01b8152600401600060405180830381600087803b15801561151a57600080fd5b505af115801561152e573d6000803e3d6000fd5b50505050565b60006102ff6116fa565b6000611548611493565b6001600160a01b031663aaabadc56040518163ffffffff1660e01b815260040160206040518083038186803b15801561158057600080fd5b505afa158015611594573d6000803e3d6000fd5b505050506040513d60208110156115aa57600080fd5b5051905090565b6301e1338081565b7f000000000000000000000000000000000000000000000000000000000000000090565b60006115e983836117e2565b9392505050565b600254611601906301e1338061165d565b421015611655576040805162461bcd60e51b815260206004820152601a60248201527f45706f636820686173206e6f742066696e697368656420796574000000000000604482015290519081900360640190fd5b611252611726565b60008282016115e984821015836119b1565b611681600260005414156101906119b1565b6002600055565b600061169f6000356001600160e01b03191661143a565b90506116b66116ae82336119c3565b6101916119b1565b50565b6001600055565b6000806116e46004546116de60025442611a6590919063ffffffff16565b90611a7b565b6003549091506116f4908261165d565b91505090565b60025460009061170e816301e1338061165d565b42106102ff5761171c611726565b50506002546102e8565b600454600061174561173c836301e13380611a7b565b6003549061165d565b905061176b671080e992061ab30061176584670de0b6b3a7640000611a7b565b90611a9f565b91506117826001805461165d90919063ffffffff16565b600155600254611796906301e1338061165d565b60025560048290556003819055604080518381526020810183905281517fa96ad9a0b81b29565fbe231714a2f2c152b759e603c91bf87144a3f61944f0a5929181900390910190a15050565b600081831115611827576040805162461bcd60e51b815260206004820152600b60248201526a1cdd185c9d080f88195b9960aa1b604482015290519081900360640190fd5b60025460045461183b826301e1338061165d565b84111561187357611850826301e1338061165d565b9150611870671080e992061ab30061176583670de0b6b3a7640000611a7b565b90505b611881826301e1338061165d565b8411156118c9576040805162461bcd60e51b8152602060048201526011602482015270746f6f2066617220696e2066757475726560781b604482015290519081900360640190fd5b6000805b6103e78110156119a75783861061195d57856118ed856301e1338061165d565b81111561190557611902856301e1338061165d565b90505b87611914866301e1338061165d565b81106119215750506119a7565b8581101561192c5750845b61194a61194361193c8484611a65565b8790611a7b565b859061165d565b935085891061195a5750506119a7565b50505b61196b846301e13380611a65565b935061198b670de0b6b3a764000061176585671080e992061ab300611a7b565b9250670353c226d6c6f58083111561199f57fe5b6001016118cd565b5095945050505050565b816119bf576119bf81611abf565b5050565b60006119cd61153e565b6001600160a01b0316639be2a8848484306040518463ffffffff1660e01b815260040180848152602001836001600160a01b03168152602001826001600160a01b03168152602001935050505060206040518083038186803b158015611a3257600080fd5b505afa158015611a46573d6000803e3d6000fd5b505050506040513d6020811015611a5c57600080fd5b50519392505050565b6000611a758383111560016119b1565b50900390565b60008282026115e9841580611a98575083858381611a9557fe5b04145b60036119b1565b6000611aae82151560046119b1565b818381611ab757fe5b049392505050565b62461bcd60e51b6000908152602060045260076024526642414c23000030600a808404818106603090810160081b95839006959095019082900491820690940160101b939093010160c81b604452606490fdfe42616c616e636572546f6b656e41646d696e206973206e6f7420616e2061646d696e42616c616e636572546f6b656e41646d696e206973206e6f74206120736e617073686f747465724d696e7420616d6f756e7420657863656564732072656d61696e696e6720617661696c61626c6520737570706c7942616c616e636572546f6b656e41646d696e206973206e6f742061206d696e746572a26469706673582212208d3e10c54076c3d5d802a18d6a4e8e2e225ef65fea2bd910929cce3a29be2e9c64736f6c63430007010033",
  "linkReferences": {},
  "deployedLinkReferences": {}
}